{
  "_format": "hh3-artifact-1",
  "contractName": "FederatedLearning",
  "sourceName": "contracts/FederatedLearning.sol",
  "abi": [
    {
      "inputs": [
        {
          "internalType": "address",
          "name": "initialOwner",
          "type": "address"
        }
      ],
      "stateMutability": "nonpayable",
      "type": "constructor"
    },
    {
      "inputs": [
        {
          "internalType": "address",
          "name": "owner",
          "type": "address"
        }
      ],
      "name": "OwnableInvalidOwner",
      "type": "error"
    },
    {
      "inputs": [
        {
          "internalType": "address",
          "name": "account",
          "type": "address"
        }
      ],
      "name": "OwnableUnauthorizedAccount",
      "type": "error"
    },
    {
      "anonymous": false,
      "inputs": [
        {
          "indexed": true,
          "internalType": "uint256",
          "name": "campaignId",
          "type": "uint256"
        }
      ],
      "name": "CampaignCancelled",
      "type": "event"
    },
    {
      "anonymous": false,
      "inputs": [
        {
          "indexed": true,
          "internalType": "uint256",
          "name": "campaignId",
          "type": "uint256"
        },
        {
          "indexed": true,
          "internalType": "uint8",
          "name": "round",
          "type": "uint8"
        },
        {
          "indexed": false,
          "internalType": "string",
          "name": "finalGlobalModelCID",
          "type": "string"
        }
      ],
      "name": "CampaignCompleted",
      "type": "event"
    },
    {
      "anonymous": false,
      "inputs": [
        {
          "indexed": true,
          "internalType": "uint256",
          "name": "campaignId",
          "type": "uint256"
        },
        {
          "indexed": false,
          "internalType": "uint8",
          "name": "totalRounds",
          "type": "uint8"
        },
        {
          "indexed": false,
          "internalType": "string",
          "name": "initialModelCID",
          "type": "string"
        }
      ],
      "name": "CampaignCreated",
      "type": "event"
    },
    {
      "anonymous": false,
      "inputs": [
        {
          "indexed": true,
          "internalType": "uint256",
          "name": "campaignId",
          "type": "uint256"
        },
        {
          "indexed": false,
          "internalType": "enum FederatedLearning.CampaignState",
          "name": "newState",
          "type": "uint8"
        }
      ],
      "name": "CampaignStateChanged",
      "type": "event"
    },
    {
      "anonymous": false,
      "inputs": [
        {
          "indexed": true,
          "internalType": "uint256",
          "name": "campaignId",
          "type": "uint256"
        },
        {
          "indexed": true,
          "internalType": "uint8",
          "name": "round",
          "type": "uint8"
        },
        {
          "indexed": false,
          "internalType": "enum FederatedLearning.CampaignState",
          "name": "state",
          "type": "uint8"
        },
        {
          "indexed": false,
          "internalType": "string",
          "name": "finalGlobalModelCID",
          "type": "string"
        }
      ],
      "name": "GlobalModelChanged",
      "type": "event"
    },
    {
      "anonymous": false,
      "inputs": [
        {
          "indexed": true,
          "internalType": "uint256",
          "name": "campaignId",
          "type": "uint256"
        },
        {
          "indexed": true,
          "internalType": "uint8",
          "name": "round",
          "type": "uint8"
        },
        {
          "indexed": true,
          "internalType": "address",
          "name": "trainer",
          "type": "address"
        },
        {
          "indexed": false,
          "internalType": "string",
          "name": "modelCID",
          "type": "string"
        }
      ],
      "name": "ModelSubmitted",
      "type": "event"
    },
    {
      "anonymous": false,
      "inputs": [
        {
          "indexed": true,
          "internalType": "uint256",
          "name": "campaignId",
          "type": "uint256"
        },
        {
          "indexed": true,
          "internalType": "uint8",
          "name": "round",
          "type": "uint8"
        },
        {
          "indexed": true,
          "internalType": "address",
          "name": "validator",
          "type": "address"
        },
        {
          "indexed": false,
          "internalType": "string",
          "name": "modelCID",
          "type": "string"
        },
        {
          "indexed": false,
          "internalType": "bool",
          "name": "isValid",
          "type": "bool"
        }
      ],
      "name": "ModelValidated",
      "type": "event"
    },
    {
      "anonymous": false,
      "inputs": [
        {
          "indexed": true,
          "internalType": "uint256",
          "name": "campaignId",
          "type": "uint256"
        },
        {
          "indexed": true,
          "internalType": "uint8",
          "name": "round",
          "type": "uint8"
        },
        {
          "indexed": false,
          "internalType": "string",
          "name": "initialModelCID",
          "type": "string"
        }
      ],
      "name": "NewRoundStarted",
      "type": "event"
    },
    {
      "anonymous": false,
      "inputs": [
        {
          "indexed": true,
          "internalType": "address",
          "name": "previousOwner",
          "type": "address"
        },
        {
          "indexed": true,
          "internalType": "address",
          "name": "newOwner",
          "type": "address"
        }
      ],
      "name": "OwnershipTransferred",
      "type": "event"
    },
    {
      "anonymous": false,
      "inputs": [
        {
          "indexed": true,
          "internalType": "uint256",
          "name": "campaignId",
          "type": "uint256"
        },
        {
          "indexed": true,
          "internalType": "uint8",
          "name": "round",
          "type": "uint8"
        },
        {
          "indexed": false,
          "internalType": "string",
          "name": "newGlobalModelCID",
          "type": "string"
        }
      ],
      "name": "RoundFinalized",
      "type": "event"
    },
    {
      "inputs": [],
      "name": "REQUIRED_VALIDATIONS",
      "outputs": [
        {
          "internalType": "uint256",
          "name": "",
          "type": "uint256"
        }
      ],
      "stateMutability": "view",
      "type": "function"
    },
    {
      "inputs": [],
      "name": "activeCampaignId",
      "outputs": [
        {
          "internalType": "uint256",
          "name": "",
          "type": "uint256"
        }
      ],
      "stateMutability": "view",
      "type": "function"
    },
    {
      "inputs": [],
      "name": "attemptAggregation",
      "outputs": [],
      "stateMutability": "nonpayable",
      "type": "function"
    },
    {
      "inputs": [],
      "name": "campaignCounter",
      "outputs": [
        {
          "internalType": "uint256",
          "name": "",
          "type": "uint256"
        }
      ],
      "stateMutability": "view",
      "type": "function"
    },
    {
      "inputs": [
        {
          "internalType": "uint256",
          "name": "",
          "type": "uint256"
        }
      ],
      "name": "campaigns",
      "outputs": [
        {
          "internalType": "uint256",
          "name": "id",
          "type": "uint256"
        },
        {
          "internalType": "enum FederatedLearning.CampaignState",
          "name": "state",
          "type": "uint8"
        },
        {
          "internalType": "string",
          "name": "globalModelCID",
          "type": "string"
        },
        {
          "internalType": "uint8",
          "name": "currentRound",
          "type": "uint8"
        },
        {
          "internalType": "uint8",
          "name": "totalRounds",
          "type": "uint8"
        },
        {
          "internalType": "uint256",
          "name": "submissionDeadline",
          "type": "uint256"
        },
        {
          "internalType": "uint8",
          "name": "minSubmissions",
          "type": "uint8"
        },
        {
          "internalType": "uint8",
          "name": "submissionCounter",
          "type": "uint8"
        }
      ],
      "stateMutability": "view",
      "type": "function"
    },
    {
      "inputs": [],
      "name": "cancelCampaign",
      "outputs": [],
      "stateMutability": "nonpayable",
      "type": "function"
    },
    {
      "inputs": [
        {
          "internalType": "address[]",
          "name": "_participants",
          "type": "address[]"
        },
        {
          "internalType": "uint8",
          "name": "_totalRounds",
          "type": "uint8"
        },
        {
          "internalType": "string",
          "name": "_initialModelCID",
          "type": "string"
        },
        {
          "internalType": "uint256",
          "name": "_submissionPeriod",
          "type": "uint256"
        },
        {
          "internalType": "uint8",
          "name": "_minSubmissions",
          "type": "uint8"
        }
      ],
      "name": "createTrainingCampaign",
      "outputs": [],
      "stateMutability": "nonpayable",
      "type": "function"
    },
    {
      "inputs": [
        {
          "internalType": "string",
          "name": "_newGlobalModelCID",
          "type": "string"
        }
      ],
      "name": "finalizeRound",
      "outputs": [],
      "stateMutability": "nonpayable",
      "type": "function"
    },
    {
      "inputs": [],
      "name": "getValidModelsForCurrentRound",
      "outputs": [
        {
          "internalType": "string[]",
          "name": "",
          "type": "string[]"
        }
      ],
      "stateMutability": "view",
      "type": "function"
    },
    {
      "inputs": [],
      "name": "owner",
      "outputs": [
        {
          "internalType": "address",
          "name": "",
          "type": "address"
        }
      ],
      "stateMutability": "view",
      "type": "function"
    },
    {
      "inputs": [],
      "name": "renounceOwnership",
      "outputs": [],
      "stateMutability": "nonpayable",
      "type": "function"
    },
    {
      "inputs": [
        {
          "internalType": "string",
          "name": "_modelCID",
          "type": "string"
        }
      ],
      "name": "submitModel",
      "outputs": [],
      "stateMutability": "nonpayable",
      "type": "function"
    },
    {
      "inputs": [
        {
          "internalType": "address",
          "name": "newOwner",
          "type": "address"
        }
      ],
      "name": "transferOwnership",
      "outputs": [],
      "stateMutability": "nonpayable",
      "type": "function"
    }
  ],
  "bytecode": "0x608060405234801561000f575f5ffd5b506040516129ff3803806129ff833981810160405281019061003191906101d7565b805f73ffffffffffffffffffffffffffffffffffffffff168173ffffffffffffffffffffffffffffffffffffffff16036100a2575f6040517f1e4fbdf70000000000000000000000000000000000000000000000000000000081526004016100999190610211565b60405180910390fd5b6100b1816100b860201b60201c565b505061022a565b5f5f5f9054906101000a900473ffffffffffffffffffffffffffffffffffffffff169050815f5f6101000a81548173ffffffffffffffffffffffffffffffffffffffff021916908373ffffffffffffffffffffffffffffffffffffffff1602179055508173ffffffffffffffffffffffffffffffffffffffff168173ffffffffffffffffffffffffffffffffffffffff167f8be0079c531659141344cd1fd0a4f28419497f9722a3daafe3b4186f6b6457e060405160405180910390a35050565b5f5ffd5b5f73ffffffffffffffffffffffffffffffffffffffff82169050919050565b5f6101a68261017d565b9050919050565b6101b68161019c565b81146101c0575f5ffd5b50565b5f815190506101d1816101ad565b92915050565b5f602082840312156101ec576101eb610179565b5b5f6101f9848285016101c3565b91505092915050565b61020b8161019c565b82525050565b5f6020820190506102245f830184610202565b92915050565b6127c8806102375f395ff3fe608060405234801561000f575f5ffd5b50600436106100cd575f3560e01c80638da5cb5b1161008a578063ccdb52cf11610064578063ccdb52cf146101b8578063ea3b565f146101d6578063f2fde38b146101f2578063fca604d71461020e576100cd565b80638da5cb5b1461017457806397b7c71614610192578063980e7844146101ae576100cd565b80630143381d146100d1578063141961bc146100ef5780634b4eee5a146101265780636ee2356414610144578063715018a61461014e578063730f919d14610158575b5f5ffd5b6100d961022c565b6040516100e69190611788565b60405180910390f35b610109600480360381019061010491906117ec565b610537565b60405161011d9897969594939291906118fc565b60405180910390f35b61012e61063f565b60405161013b919061197f565b60405180910390f35b61014c610645565b005b6101566107be565b005b610172600480360381019061016d9190611ac4565b6107d1565b005b61017c610bdf565b6040516101899190611b4a565b60405180910390f35b6101ac60048036038101906101a79190611c7b565b610c06565b005b6101b6610fe2565b005b6101c061110d565b6040516101cd919061197f565b60405180910390f35b6101f060048036038101906101eb9190611ac4565b611111565b005b61020c60048036038101906102079190611d2a565b611484565b005b610216611508565b604051610223919061197f565b60405180910390f35b60605f60025411610272576040517f08c379a000000000000000000000000000000000000000000000000000000000815260040161026990611d9f565b60405180910390fd5b5f60035f60025481526020019081526020015f2090505f816003015f9054906101000a900460ff1690505f5f90505f5f90505b60055f60025481526020019081526020015f205f8460ff1660ff1681526020019081526020015f2080549050811015610344575f60055f60025481526020019081526020015f205f8560ff1660ff1681526020019081526020015f20828154811061031357610312611dbd565b5b905f5260205f209060030201600201541061033757818061033390611e17565b9250505b80806001019150506102a5565b505f8167ffffffffffffffff8111156103605761035f6119a0565b5b60405190808252806020026020018201604052801561039357816020015b606081526020019060019003908161037e5790505b5090505f5f90505f5f90505b60055f60025481526020019081526020015f205f8660ff1660ff1681526020019081526020015f208054905081101561052b575f60055f60025481526020019081526020015f205f8760ff1660ff1681526020019081526020015f20828154811061040d5761040c611dbd565b5b905f5260205f209060030201600201541061051e5760055f60025481526020019081526020015f205f8660ff1660ff1681526020019081526020015f20818154811061045c5761045b611dbd565b5b905f5260205f2090600302015f01805461047590611e8b565b80601f01602080910402602001604051908101604052809291908181526020018280546104a190611e8b565b80156104ec5780601f106104c3576101008083540402835291602001916104ec565b820191905f5260205f20905b8154815290600101906020018083116104cf57829003601f168201915b505050505083838151811061050457610503611dbd565b5b6020026020010181905250818061051a90611e17565b9250505b808060010191505061039f565b50819550505050505090565b6003602052805f5260405f205f91509050805f015490806001015f9054906101000a900460ff169080600201805461056e90611e8b565b80601f016020809104026020016040519081016040528092919081815260200182805461059a90611e8b565b80156105e55780601f106105bc576101008083540402835291602001916105e5565b820191905f5260205f20905b8154815290600101906020018083116105c857829003601f168201915b505050505090806003015f9054906101000a900460ff16908060030160019054906101000a900460ff1690806005015490806006015f9054906101000a900460ff16908060060160019054906101000a900460ff16905088565b60025481565b5f60035f60025481526020019081526020015f2090506001600381111561066f5761066e611826565b5b816001015f9054906101000a900460ff16600381111561069257610691611826565b5b146106d2576040517f08c379a00000000000000000000000000000000000000000000000000000000081526004016106c990611f05565b60405180910390fd5b5f8160050154421190505f826006015f9054906101000a900460ff1660ff168360060160019054906101000a900460ff1660ff161015905081806107135750805b610752576040517f08c379a000000000000000000000000000000000000000000000000000000000815260040161074990611f6d565b60405180910390fd5b6003836001015f6101000a81548160ff0219169083600381111561077957610778611826565b5b02179055506002547f7c387a42b7678e1b26d65927d4a0176444d9c6509a72583dee248753b768db4160036040516107b19190611f8b565b60405180910390a2505050565b6107c661150e565b6107cf5f611595565b565b5f60035f60025481526020019081526020015f2090505f816003015f9054906101000a900460ff1690506001600381111561080f5761080e611826565b5b826001015f9054906101000a900460ff16600381111561083257610831611826565b5b14610872576040517f08c379a000000000000000000000000000000000000000000000000000000000815260040161086990611f05565b60405180910390fd5b81600501544211156108b9576040517f08c379a00000000000000000000000000000000000000000000000000000000081526004016108b090611fee565b60405180910390fd5b816004015f3373ffffffffffffffffffffffffffffffffffffffff1673ffffffffffffffffffffffffffffffffffffffff1681526020019081526020015f205f9054906101000a900460ff16610944576040517f08c379a000000000000000000000000000000000000000000000000000000000815260040161093b9061207c565b60405180910390fd5b5f60045f60025481526020019081526020015f205f8360ff1660ff1681526020019081526020015f205f3373ffffffffffffffffffffffffffffffffffffffff1673ffffffffffffffffffffffffffffffffffffffff1681526020019081526020015f2080546109b390611e8b565b9050146109f5576040517f08c379a00000000000000000000000000000000000000000000000000000000081526004016109ec906120e4565b60405180910390fd5b8260045f60025481526020019081526020015f205f8360ff1660ff1681526020019081526020015f205f3373ffffffffffffffffffffffffffffffffffffffff1673ffffffffffffffffffffffffffffffffffffffff1681526020019081526020015f209081610a6591906122a2565b5060055f60025481526020019081526020015f205f8260ff1660ff1681526020019081526020015f2060405180606001604052808581526020013373ffffffffffffffffffffffffffffffffffffffff1681526020015f815250908060018154018082558091505060019003905f5260205f2090600302015f909190919091505f820151815f019081610af891906122a2565b506020820151816001015f6101000a81548173ffffffffffffffffffffffffffffffffffffffff021916908373ffffffffffffffffffffffffffffffffffffffff16021790555060408201518160020155505081600601600181819054906101000a900460ff1680929190610b6c90612371565b91906101000a81548160ff021916908360ff160217905550503373ffffffffffffffffffffffffffffffffffffffff168160ff166002547f08b17927e8ee4e2f6476e64f65d644fa5cdbced6e4d5c993171f6ce8ae6317cb86604051610bd29190612399565b60405180910390a4505050565b5f5f5f9054906101000a900473ffffffffffffffffffffffffffffffffffffffff16905090565b610c0e61150e565b5f6003811115610c2157610c20611826565b5b60035f60025481526020019081526020015f206001015f9054906101000a900460ff166003811115610c5657610c55611826565b5b14610c96576040517f08c379a0000000000000000000000000000000000000000000000000000000008152600401610c8d90612403565b60405180910390fd5b5f855111610cd9576040517f08c379a0000000000000000000000000000000000000000000000000000000008152600401610cd090612491565b60405180910390fd5b5f8160ff16118015610cef575084518160ff1611155b610d2e576040517f08c379a0000000000000000000000000000000000000000000000000000000008152600401610d25906124f9565b60405180910390fd5b5f8211610d70576040517f08c379a0000000000000000000000000000000000000000000000000000000008152600401610d6790612587565b60405180910390fd5b60015f815480929190610d8290611e17565b91905055506001546002819055505f60035f60025481526020019081526020015f209050600254815f0181905550848160030160016101000a81548160ff021916908360ff1602179055506001816003015f6101000a81548160ff021916908360ff1602179055506001816001015f6101000a81548160ff02191690836003811115610e1157610e10611826565b5b021790555083816002019081610e2791906122a2565b5081816006015f6101000a81548160ff021916908360ff1602179055508242610e5091906125a5565b81600501819055505f8160060160016101000a81548160ff021916908360ff1602179055505f5f90505b8651811015610f01576001826004015f898481518110610e9d57610e9c611dbd565b5b602002602001015173ffffffffffffffffffffffffffffffffffffffff1673ffffffffffffffffffffffffffffffffffffffff1681526020019081526020015f205f6101000a81548160ff0219169083151502179055508080600101915050610e7a565b506002547fa31a56872f821ec03b1752efec5eb70ea7b75d1ee210c6fc4ace5e0232c4df738686604051610f369291906125d8565b60405180910390a26002547f7c387a42b7678e1b26d65927d4a0176444d9c6509a72583dee248753b768db416001604051610f719190611f8b565b60405180910390a2806003015f9054906101000a900460ff1660ff16815f01547f38ecf5f0f3332b767a865e7b4ea255c4cfd43ea24621111d47f9392862fec3f4836001015f9054906101000a900460ff1687604051610fd2929190612606565b60405180910390a3505050505050565b610fea61150e565b5f60035f60025481526020019081526020015f2090505f600381111561101357611012611826565b5b816001015f9054906101000a900460ff16600381111561103657611035611826565b5b03611076576040517f08c379a000000000000000000000000000000000000000000000000000000000815260040161106d9061267e565b60405180910390fd5b5f816001015f6101000a81548160ff0219169083600381111561109c5761109b611826565b5b02179055506002547f403b6718db13878ac16c27decb08f09d3a10f116c7c25af575ff5bfbc11ae9e660405160405180910390a26002547f7c387a42b7678e1b26d65927d4a0176444d9c6509a72583dee248753b768db415f6040516111029190611f8b565b60405180910390a250565b5f81565b61111961150e565b5f60035f60025481526020019081526020015f2090505f816003015f9054906101000a900460ff16905060038081111561115657611155611826565b5b826001015f9054906101000a900460ff16600381111561117957611178611826565b5b146111b9576040517f08c379a00000000000000000000000000000000000000000000000000000000081526004016111b0906126e6565b60405180910390fd5b5f8351116111fc576040517f08c379a00000000000000000000000000000000000000000000000000000000081526004016111f390612774565b60405180910390fd5b8282600201908161120d91906122a2565b505f8260060160016101000a81548160ff021916908360ff1602179055508060ff166002547f97dbd91ec602ee1ff501bec1c3dd5c29c19ed4602577d56a11fd9fe433004755856040516112619190612399565b60405180910390a38160030160019054906101000a900460ff1660ff168160ff1603611390575f826001015f6101000a81548160ff021916908360038111156112ad576112ac611826565b5b02179055508060ff16825f01547f38ecf5f0f3332b767a865e7b4ea255c4cfd43ea24621111d47f9392862fec3f4846001015f9054906101000a900460ff16866040516112fb929190612606565b60405180910390a3816003015f9054906101000a900460ff1660ff166002547f78ba588b7b3158d5b56a5bbd92ccc4567564978a2070598330c4b160a79e1ef9856040516113499190612399565b60405180910390a36002547f7c387a42b7678e1b26d65927d4a0176444d9c6509a72583dee248753b768db415f6040516113839190611f8b565b60405180910390a261147f565b816003015f81819054906101000a900460ff16809291906113b090612371565b91906101000a81548160ff021916908360ff160217905550506001826001015f6101000a81548160ff021916908360038111156113f0576113ef611826565b5b0217905550816003015f9054906101000a900460ff1660ff166002547f4119e2d239fd538e20edd294dea9455fc348a97bdc7fa5963de120e144543d918560405161143b9190612399565b60405180910390a36002547f7c387a42b7678e1b26d65927d4a0176444d9c6509a72583dee248753b768db4160016040516114769190611f8b565b60405180910390a25b505050565b61148c61150e565b5f73ffffffffffffffffffffffffffffffffffffffff168173ffffffffffffffffffffffffffffffffffffffff16036114fc575f6040517f1e4fbdf70000000000000000000000000000000000000000000000000000000081526004016114f39190611b4a565b60405180910390fd5b61150581611595565b50565b60015481565b611516611656565b73ffffffffffffffffffffffffffffffffffffffff16611534610bdf565b73ffffffffffffffffffffffffffffffffffffffff161461159357611557611656565b6040517f118cdaa700000000000000000000000000000000000000000000000000000000815260040161158a9190611b4a565b60405180910390fd5b565b5f5f5f9054906101000a900473ffffffffffffffffffffffffffffffffffffffff169050815f5f6101000a81548173ffffffffffffffffffffffffffffffffffffffff021916908373ffffffffffffffffffffffffffffffffffffffff1602179055508173ffffffffffffffffffffffffffffffffffffffff168173ffffffffffffffffffffffffffffffffffffffff167f8be0079c531659141344cd1fd0a4f28419497f9722a3daafe3b4186f6b6457e060405160405180910390a35050565b5f33905090565b5f81519050919050565b5f82825260208201905092915050565b5f819050602082019050919050565b5f81519050919050565b5f82825260208201905092915050565b8281835e5f83830152505050565b5f601f19601f8301169050919050565b5f6116c882611686565b6116d28185611690565b93506116e28185602086016116a0565b6116eb816116ae565b840191505092915050565b5f61170183836116be565b905092915050565b5f602082019050919050565b5f61171f8261165d565b6117298185611667565b93508360208202850161173b85611677565b805f5b85811015611776578484038952815161175785826116f6565b945061176283611709565b925060208a0199505060018101905061173e565b50829750879550505050505092915050565b5f6020820190508181035f8301526117a08184611715565b905092915050565b5f604051905090565b5f5ffd5b5f5ffd5b5f819050919050565b6117cb816117b9565b81146117d5575f5ffd5b50565b5f813590506117e6816117c2565b92915050565b5f60208284031215611801576118006117b1565b5b5f61180e848285016117d8565b91505092915050565b611820816117b9565b82525050565b7f4e487b71000000000000000000000000000000000000000000000000000000005f52602160045260245ffd5b6004811061186457611863611826565b5b50565b5f81905061187482611853565b919050565b5f61188382611867565b9050919050565b61189381611879565b82525050565b5f82825260208201905092915050565b5f6118b382611686565b6118bd8185611899565b93506118cd8185602086016116a0565b6118d6816116ae565b840191505092915050565b5f60ff82169050919050565b6118f6816118e1565b82525050565b5f610100820190506119105f83018b611817565b61191d602083018a61188a565b818103604083015261192f81896118a9565b905061193e60608301886118ed565b61194b60808301876118ed565b61195860a0830186611817565b61196560c08301856118ed565b61197260e08301846118ed565b9998505050505050505050565b5f6020820190506119925f830184611817565b92915050565b5f5ffd5b5f5ffd5b7f4e487b71000000000000000000000000000000000000000000000000000000005f52604160045260245ffd5b6119d6826116ae565b810181811067ffffffffffffffff821117156119f5576119f46119a0565b5b80604052505050565b5f611a076117a8565b9050611a1382826119cd565b919050565b5f67ffffffffffffffff821115611a3257611a316119a0565b5b611a3b826116ae565b9050602081019050919050565b828183375f83830152505050565b5f611a68611a6384611a18565b6119fe565b905082815260208101848484011115611a8457611a8361199c565b5b611a8f848285611a48565b509392505050565b5f82601f830112611aab57611aaa611998565b5b8135611abb848260208601611a56565b91505092915050565b5f60208284031215611ad957611ad86117b1565b5b5f82013567ffffffffffffffff811115611af657611af56117b5565b5b611b0284828501611a97565b91505092915050565b5f73ffffffffffffffffffffffffffffffffffffffff82169050919050565b5f611b3482611b0b565b9050919050565b611b4481611b2a565b82525050565b5f602082019050611b5d5f830184611b3b565b92915050565b5f67ffffffffffffffff821115611b7d57611b7c6119a0565b5b602082029050602081019050919050565b5f5ffd5b611b9b81611b2a565b8114611ba5575f5ffd5b50565b5f81359050611bb681611b92565b92915050565b5f611bce611bc984611b63565b6119fe565b90508083825260208201905060208402830185811115611bf157611bf0611b8e565b5b835b81811015611c1a5780611c068882611ba8565b845260208401935050602081019050611bf3565b5050509392505050565b5f82601f830112611c3857611c37611998565b5b8135611c48848260208601611bbc565b91505092915050565b611c5a816118e1565b8114611c64575f5ffd5b50565b5f81359050611c7581611c51565b92915050565b5f5f5f5f5f60a08688031215611c9457611c936117b1565b5b5f86013567ffffffffffffffff811115611cb157611cb06117b5565b5b611cbd88828901611c24565b9550506020611cce88828901611c67565b945050604086013567ffffffffffffffff811115611cef57611cee6117b5565b5b611cfb88828901611a97565b9350506060611d0c888289016117d8565b9250506080611d1d88828901611c67565b9150509295509295909350565b5f60208284031215611d3f57611d3e6117b1565b5b5f611d4c84828501611ba8565b91505092915050565b7f4e6f2063616d706169676e2069732061637469766500000000000000000000005f82015250565b5f611d89601583611899565b9150611d9482611d55565b602082019050919050565b5f6020820190508181035f830152611db681611d7d565b9050919050565b7f4e487b71000000000000000000000000000000000000000000000000000000005f52603260045260245ffd5b7f4e487b71000000000000000000000000000000000000000000000000000000005f52601160045260245ffd5b5f611e21826117b9565b91507fffffffffffffffffffffffffffffffffffffffffffffffffffffffffffffffff8203611e5357611e52611dea565b5b600182019050919050565b7f4e487b71000000000000000000000000000000000000000000000000000000005f52602260045260245ffd5b5f6002820490506001821680611ea257607f821691505b602082108103611eb557611eb4611e5e565b5b50919050565b7f4e6f7420696e207375626d697373696f6e2070686173650000000000000000005f82015250565b5f611eef601783611899565b9150611efa82611ebb565b602082019050919050565b5f6020820190508181035f830152611f1c81611ee3565b9050919050565b7f4167677265676174696f6e20636f6e646974696f6e73206e6f74206d657400005f82015250565b5f611f57601e83611899565b9150611f6282611f23565b602082019050919050565b5f6020820190508181035f830152611f8481611f4b565b9050919050565b5f602082019050611f9e5f83018461188a565b92915050565b7f5375626d697373696f6e20706572696f642068617320656e64656400000000005f82015250565b5f611fd8601b83611899565b9150611fe382611fa4565b602082019050919050565b5f6020820190508181035f83015261200581611fcc565b9050919050565b7f4e6f7420616e20617574686f72697a656420747261696e657220666f722074685f8201527f69732063616d706169676e000000000000000000000000000000000000000000602082015250565b5f612066602b83611899565b91506120718261200c565b604082019050919050565b5f6020820190508181035f8301526120938161205a565b9050919050565b7f416c7265616479207375626d697474656420666f72207468697320726f756e645f82015250565b5f6120ce602083611899565b91506120d98261209a565b602082019050919050565b5f6020820190508181035f8301526120fb816120c2565b9050919050565b5f819050815f5260205f209050919050565b5f6020601f8301049050919050565b5f82821b905092915050565b5f6008830261215e7fffffffffffffffffffffffffffffffffffffffffffffffffffffffffffffffff82612123565b6121688683612123565b95508019841693508086168417925050509392505050565b5f819050919050565b5f6121a361219e612199846117b9565b612180565b6117b9565b9050919050565b5f819050919050565b6121bc83612189565b6121d06121c8826121aa565b84845461212f565b825550505050565b5f5f905090565b6121e76121d8565b6121f28184846121b3565b505050565b5b818110156122155761220a5f826121df565b6001810190506121f8565b5050565b601f82111561225a5761222b81612102565b61223484612114565b81016020851015612243578190505b61225761224f85612114565b8301826121f7565b50505b505050565b5f82821c905092915050565b5f61227a5f198460080261225f565b1980831691505092915050565b5f612292838361226b565b9150826002028217905092915050565b6122ab82611686565b67ffffffffffffffff8111156122c4576122c36119a0565b5b6122ce8254611e8b565b6122d9828285612219565b5f60209050601f83116001811461230a575f84156122f8578287015190505b6123028582612287565b865550612369565b601f19841661231886612102565b5f5b8281101561233f5784890151825560018201915060208501945060208101905061231a565b8683101561235c5784890151612358601f89168261226b565b8355505b6001600288020188555050505b505050505050565b5f61237b826118e1565b915060ff820361238e5761238d611dea565b5b600182019050919050565b5f6020820190508181035f8301526123b181846118a9565b905092915050565b7f416e206578697374696e672063616d706169676e2069732061637469766500005f82015250565b5f6123ed601e83611899565b91506123f8826123b9565b602082019050919050565b5f6020820190508181035f83015261241a816123e1565b9050919050565b7f4d7573742070726f76696465206174206c65617374206f6e65207061727469635f8201527f6970616e74000000000000000000000000000000000000000000000000000000602082015250565b5f61247b602583611899565b915061248682612421565b604082019050919050565b5f6020820190508181035f8301526124a88161246f565b9050919050565b7f496e76616c6964206d696e207375626d697373696f6e730000000000000000005f82015250565b5f6124e3601783611899565b91506124ee826124af565b602082019050919050565b5f6020820190508181035f830152612510816124d7565b9050919050565b7f5375626d697373696f6e20706572696f64206d75737420626520706f736974695f8201527f7665000000000000000000000000000000000000000000000000000000000000602082015250565b5f612571602283611899565b915061257c82612517565b604082019050919050565b5f6020820190508181035f83015261259e81612565565b9050919050565b5f6125af826117b9565b91506125ba836117b9565b92508282019050808211156125d2576125d1611dea565b5b92915050565b5f6040820190506125eb5f8301856118ed565b81810360208301526125fd81846118a9565b90509392505050565b5f6040820190506126195f83018561188a565b818103602083015261262b81846118a9565b90509392505050565b7f4e6f206163746976652063616d706169676e20746f2063616e63656c000000005f82015250565b5f612668601c83611899565b915061267382612634565b602082019050919050565b5f6020820190508181035f8301526126958161265c565b9050919050565b7f4e6f7420696e206167677265676174696f6e20706861736500000000000000005f82015250565b5f6126d0601883611899565b91506126db8261269c565b602082019050919050565b5f6020820190508181035f8301526126fd816126c4565b9050919050565b7f4e657720676c6f62616c206d6f64656c204349442063616e6e6f7420626520655f8201527f6d70747900000000000000000000000000000000000000000000000000000000602082015250565b5f61275e602483611899565b915061276982612704565b604082019050919050565b5f6020820190508181035f83015261278b81612752565b905091905056fea26469706673582212204a392ef684a4bb12f9b16bc72657cfa6762b91461572b610c8156884272b72ac64736f6c634300081c0033",
  "linkReferences": {},
  "deployedLinkReferences": {},
  "immutableReferences": {},
  "inputSourceName": "project/contracts/FederatedLearning.sol",
  "buildInfoId": "solc-0_8_28-2db80b8384d352273c7cf95989af144eb49a65bf"
}